:020000040800F2
:100000000004002001022000E1192000E119200075
:10001000E1192000E1192000E1192000E119200078
:10002000E1192000E1192000E1192000010B200056
:10003000E1192000E1192000E119200091112000B0
:10004000E1192000E1192000E1192000E119200048
:10005000E1192000E1192000E1192000E119200038
:10006000E1192000E1192000E1192000C11420004D
:10007000911420006114200031142000011420008C
:10008000D1132000A1132000F1142000E119200059
:10009000E1192000E1192000E1192000E1192000F8
:1000A000E1192000E1192000E1192000E1192000E8
:1000B000E1192000E110200051112000E119200079
:1000C000E1192000E1192000E1192000E1192000C8
:1000D000E1192000E1192000E1192000E1192000B8
:1000E000E1192000E1192000E1192000E1192000A8
:1000F000E1192000E1192000E1192000711320000E
:10010000E1192000E1192000E1192000E119200087
:10011000E1192000E1192000E1192000E119200077
:100120004113200011132000E1122000B112200021
:1001300081122000E1192000E1192000E1192000BE
:10014000E1192000E1192000E1192000E119200047
:100150005112200021122000F1112000E11920008D
:10016000E1192000E1192000E1192000E119200027
:10017000E1192000E1192000E1192000E119200017
:10018000E1192000E1192000C1102000111B2000FE
:10019000E1192000E1192000E1192000E1192000F7
:1001A000E1192000E1192000E1192000E1192000E7
:1001B000E1192000E1192000E1192000E1192000D7
:1001C000E1192000E1192000E1192000E1192000C7
:1001D000E1192000E1192000E1192000E1192000B7
:1001E000E1192000E1192000E1192000E1192000A7
:1001F000E1192000E1192000E1192000E119200097
:1002000072B6264880F3098825484EF60851CEF28A
:1002100000010860022080F31488BFF36F8F01F0A3
:1002200027FC02F0EDF94FF055301E491E4A91426D
:100230003CBF41F8040BFAE71C49184A91423CBF05
:1002400041F8040BFAE71A491A4A1B4B9A423EBF7F
:1002500051F8040B42F8040BF8E700201749184A3C
:1002600091423CBF41F8040BFAE701F0C1FB01F0F9
:10027000F7FB144C144DAC4203DA54F8041B8847C6
:10028000F9E701F055FC114C114DAC4203DA54F87A
:10029000041B8847F9E701F0DBBB000000080020E1
:1002A00000002000000000200004002000040020C6
:1002B000B4280008000002204400022000080020AA
:1002C000600B00200002200000022000000220003D
:1002D000000220002DE9F04FC1F80CD0D0F80CD06E
:1002E000BDE8F08F002383F311882846A047002043
:1002F00001F076F901F09CF900DFFEE781F00041A2
:1003000002E000BF83F0004330B54FEA41044FEAFA
:10031000430594EA050F08BF90EA020F1FBF54EA95
:10032000000C55EA020C7FEA645C7FEA655C00F031
:10033000E2804FEA5454D4EB5555B8BF6D420CDD02
:100340002C4480EA020281EA030382EA000083EA85
:10035000010180EA020281EA0303362D88BF30BD25
:1003600011F0004F4FEA01314FF4801C4CEA11317B
:1003700002D0404261EB410113F0004F4FEA0333DA
:100380004CEA133302D0524263EB430394EA050F65
:1003900000F0A780A4F10104D5F1200E0DDB02FAD4
:1003A0000EFC22FA05F2801841F1000103FA0EF268
:1003B000801843FA05F359410EE0A5F120050EF12E
:1003C000200E012A03FA0EFC28BF4CF0020C43FA5F
:1003D00005F3C01851EBE37101F0004507D54FF06C
:1003E000000EDCF1000C7EEB00006EEB0101B1F5BC
:1003F000801F1BD3B1F5001F0CD349085FEA300002
:100400004FEA3C0C04F101044FEA445212F5800F0C
:1004100080F09A80BCF1004F08BF5FEA500C50F1A9
:10042000000041EB045141EA050130BD5FEA4C0C8C
:10043000404141EB010111F4801FA4F10104E9D115
:1004400091F0000F04BF01460020B1FA81F308BF0C
:100450002033A3F10B03B3F120020CDA0C3208DDD8
:1004600002F1140CC2F10C0201FA0CF021FA02F1B3
:100470000CE002F11402D8BFC2F1200C01FA02F123
:1004800020FA0CFCDCBF41EA0C019040E41AA2BF48
:1004900001EB0451294330BD6FEA04041F3C1CDA10
:1004A0000C340EDC04F11404C4F1200220FA04F030
:1004B00001FA02F340EA030021FA04F345EA0301DA
:1004C00030BDC4F10C04C4F1200220FA02F001FA9C
:1004D00004F340EA0300294630BD21FA04F029461E
:1004E00030BD94F0000F83F4801306BF81F48011B7
:1004F0000134013D4EE77FEA645C18BF7FEA655C2A
:1005000029D094EA050F08BF90EA020F05D054EAFB
:10051000000C04BF1946104630BD91EA030F1EBF00
:100520000021002030BD5FEA545C05D14000494104
:1005300028BF41F0004130BD14F580043CBF01F5F7
:10054000801130BD01F0004545F0FE4141F47001DD
:100550004FF0000030BD7FEA645C1ABF19461046B8
:100560007FEA655C1CBF0B46024650EA013406BFB9
:1005700052EA033591EA030F41F4002130BD00BF78
:1005800090F0000F04BF0021704730B54FF4806435
:1005900004F132044FF000054FF0000150E700BFB6
:1005A00090F0000F04BF0021704730B54FF4806415
:1005B00004F1320410F0004548BF40424FF0000102
:1005C0003EE700BF42004FEAE2014FEA31014FEA45
:1005D00002701FBF12F07F4393F07F4F81F0605194
:1005E000704792F0000F14BF93F07F4F704730B503
:1005F0004FF4607401F0004521F0004120E700BF96
:1006000050EA010208BF704730B54FF000050AE01C
:1006100050EA010208BF704730B511F0004502D51D
:10062000404261EB41014FF4806404F132045FEA1F
:10063000915C3FF4DCAE4FF003025FEADC0C18BFC4
:1006400003325FEADC0C18BF033202EBDC02C2F1BA
:10065000200300FA03FC20FA02F001FA03FE40EA4C
:100660000E0021FA02F11444C1E600BF70B54FF04C
:10067000FF0C4CF4E06C1CEA11541DBF1CEA13552E
:1006800094EA0C0F95EA0C0F00F0DEF82C4481EA96
:10069000030621EA4C5123EA4C5350EA013518BFB6
:1006A00052EA033541F4801143F4801338D0A0FBA3
:1006B00002CE4FF00005E1FB02E506F00042E0FB50
:1006C00003E54FF00006E1FB03569CF0000F18BF56
:1006D0004EF0010EA4F1FF04B6F5007F64F54074FE
:1006E00004D25FEA4E0E6D4146EB060642EAC62191
:1006F00041EA55514FEAC52040EA5E504FEACE2EFE
:10070000B4F1FD0C88BFBCF5E06F1ED8BEF1004F00
:1007100008BF5FEA500E50F1000041EB045170BD7C
:1007200006F0004646EA010140EA020081EA0301C0
:10073000B4EB5C04C2BFD4EB0C0541EA045170BDBC
:1007400041F480114FF0000E013C00F3AB8014F136
:10075000360FDEBF002001F0004170BDC4F100047F
:10076000203C35DA0C341BDC04F11404C4F1200500
:1007700000FA05F320FA04F001FA05F240EA02005B
:1007800001F0004221F0004110EBD37021FA04F691
:1007900042EB06015EEA430E08BF20EAD37070BD4B
:1007A000C4F10C04C4F1200500FA04F320FA05F0AA
:1007B00001FA04F240EA020001F0004110EBD370AC
:1007C00041F100015EEA430E08BF20EAD37070BD1C
:1007D000C4F1200500FA05F24EEA020E20FA04F3F5
:1007E00001FA05F243EA020321FA04F001F00041A4
:1007F00021FA04F220EA020000EBD3705EEA430E15
:1008000008BF20EAD37070BD94F0000F0FD101F043
:100810000046400041EB010111F4801F08BF013C7C
:10082000F7D041EA060195F0000F18BF704703F0BA
:100830000046520043EB030313F4801F08BF013D41
:10084000F7D043EA0603704794EA0C0F0CEA1355FD
:1008500018BF95EA0C0F0CD050EA410618BF52EAB7
:100860004306D1D181EA030101F000414FF00000BD
:1008700070BD50EA410606BF1046194652EA4306CB
:1008800019D094EA0C0F02D150EA013613D195EA3F
:100890000C0F05D152EA03361CBF104619460AD187
:1008A00081EA030101F0004141F0FE4141F4700191
:1008B0004FF0000070BD41F0FE4141F4780170BD81
:1008C00070B54FF0FF0C4CF4E06C1CEA11541DBFE6
:1008D0001CEA135594EA0C0F95EA0C0F00F0A7F8E8
:1008E000A4EB050481EA030E52EA03354FEA013115
:1008F00000F088804FEA03334FF0805545EA131328
:1009000043EA12634FEA022245EA111545EA1065EF
:100910004FEA00260EF000419D4208BF964244F186
:10092000FD0404F5407402D25B084FEA3202B61AA5
:1009300065EB03055B084FEA32024FF480104FF479
:10094000002CB6EB020E75EB030E22BFB61A7546ED
:1009500040EA0C005B084FEA3202B6EB020E75EB80
:10096000030E22BFB61A754640EA5C005B084FEAE8
:100970003202B6EB020E75EB030E22BFB61A7546B5
:1009800040EA9C005B084FEA3202B6EB020E75EBC0
:10099000030E22BFB61A754640EADC0055EA060E81
:1009A00018D04FEA051545EA16754FEA06164FEAC4
:1009B000C30343EA52734FEAC2025FEA1C1CC0D170
:1009C00011F4801F0BD141EA00014FF000004FF0FD
:1009D000004CB6E711F4801F04BF01430020B4F1BE
:1009E000FD0C88BFBCF5E06F3FF6AFAEB5EB030C76
:1009F00004BFB6EB020C5FEA500C50F1000041EB73
:100A0000045170BD0EF0004E4EEA113114EB5C043F
:100A1000C2BFD4EB0C0541EA045170BD41F4801112
:100A20004FF0000E013C90E645EA060E8DE60CEA1A
:100A3000135594EA0C0F08BF95EA0C0F3FF43BAF37
:100A400094EA0C0F0AD150EA01347FF434AF95EAEE
:100A50000C0F7FF425AF104619462CE795EA0C0FD2
:100A600006D152EA03353FF4FDAE1046194622E79F
:100A700050EA410618BF52EA43067FF4C5AE50EA79
:100A800041047FF40DAF52EA43057FF4EBAE12E769
:100A90004FEA410212F5001215D211D56FF47873A6
:100AA000B3EB625212D94FEAC12343F0004343EA49
:100AB000505311F0004F23FA02F018BF4042704724
:100AC0004FF00000704750EA013005D111F00040AE
:100AD00008BF6FF0004070474FF00000704700BF44
:100AE000024A136843F0800313607047007C0040A3
:100AF000024A136843F08003136070470078004097
:100B000080B400AFEFF30983203383F30988002317
:100B100083F31188BD4680BC704700BF0000000011
:100B200070B4202383F311880D4E4A1E4D420D4CA4
:100B3000336802442468013B2A4058182840231A8D
:100B40009A4206D802440023326083F3118870BCB5
:100B500070470020002383F3118870BC704700BFEA
:100B6000180B0020140B0020000000000000000003
:100B7000202383F3118890F82030072B0ED8DFE86C
:100B800003F0280D0D2408040D08426A9368013310
:100B9000936090E80C001A6002685360002281683C
:100BA0000E4B80F8202010B44FF0FF3444621B68D5
:100BB0009A688A42FBD25A68002103604260106042
:100BC000586081F3118810BC7047436A00221A6094
:100BD000E4E7002383F31188704700BF2009002059
:100BE00010B400220446084B816880F820201B685E
:100BF0009A688A42FBD25A68204623606260146079
:100C00005C6010BC704700BF20090020000000009D
:100C100011F00C0F70B5044631D0C06A03681A6831
:100C200022F01F021A60196811F00101FBD1037A4A
:100C30003D222569012640689A40AD68A36A02609A
:100C4000596099609E60002D30D0052320462370A6
:100C5000A8472378052B67D000232361202383F343
:100C6000118863693BB100214FF0FF321846616182
:100C70005A62FFF7B5FF002383F3118870BD056941
:100C80009DB18A060FD52B78EBB16B686BB1C2684A
:100C9000012A4CD952086D888468510005FB014136
:100CA000BDE870401847CB0604D470BD022325610F
:100CB0002370D3E76B68002BF7D0C26881685208B5
:100CC000BDE870401847C06A0268136823F01F032C
:100CD0001360136813F00103FBD1027A3D216D68A4
:100CE000012640689140A26A01605360936096605B
:100CF000ADB10423E268A16820462370A847237899
:100D0000042B0CD0202383F311886369002BB2D00D
:100D10000022184662615A62FFF762FFABE70222C7
:100D2000002322702361EDE70223237094E781689A
:100D3000BDE87040184700BF000000000000000040
:100D4000F8B50468A04222D00D460746002602E00E
:100D50002468A7421BD0E3682B43E36015B12269E6
:100D60001342F5D06068A368416B90F820200B43D4
:100D70000A2A43630CD00B2AEAD1426A32EA0303FF
:100D8000E6D14662FFF72CFF2468A742E3D1F8BD05
:100D9000426A1342DCD04662FFF722FFF4E700BF4D
:100DA000FEE700BF0000000000000000000000009F
:100DB000084B1A68996930B481F82000012514683D
:100DC000104663601C6082F820509A6130BCFFF7C7
:100DD00081BA00BF200900200000000000000000D0
:100DE0002DE9F041466D04463768F5692A073562FA
:100DF00054D1EB0546D4A80617D4390601D52A06E6
:100E000068D46B060FD5202383F31188626CA36C22
:100E10009A4200F0898027F040070023376083F36F
:100E20001188BDE8F081BDE8F081202383F31188AB
:100E3000726A94F85C80636908EA0208002B7CD02F
:100E4000236A04F10C01626A93427BD06269581CE8
:100E500001322062626183F80080226AE3699A426B
:100E60005FD2E368994209D01A684FF0000E184625
:100E7000E2605160C3F824E0FFF7B2FE002383F381
:100E80001188BAE7202383F311884FF40071201DE5
:100E9000FFF756FF002383F31188ACE715F0080F26
:100EA0000CBF00218021EB074FF0200348BF41F029
:100EB0002001A80748BF41F040016A0748BF41F43C
:100EC000807183F31188201DFFF73AFF002383F31D
:100ED00011888EE7202383F31188A36C04F1300E70
:100EE000626C9A4237D0A26B581C216C0132A0640C
:100EF0008842A26393F8008001D3E36BA364236B61
:100F00009E4508D01A68002118462263C2F804E002
:100F10005962FFF765FEC6F82880002383F3118825
:100F20006FE7A36923629CE7A36B002B3FF473AFC9
:100F3000201D1021FFF704FF6DE704216018FFF763
:100F4000FFFE7DE76269002A80D04FF48061201D9A
:100F5000FFF7F6FE92E7A26B002AC4D00821201DFD
:100F6000FFF7EEFE27F0C00343F040033360D4E701
:100F70002DE9F04F02F00309C2F38008C2F3C10C5F
:100F8000C2F3411E00264F46C2F3C3124FF00F0AB0
:100F90000EE0036A23EA040425430562490847D0AA
:100FA0004FEA480801364FEA8C0C4FEA8E0EBF001C
:100FB000CB07F3D50123456806F00704B9F1020F0A
:100FC00003FA06FB06FA03F34FEA840425EA0B0B47
:100FD0004FF003054BEA080B05FA03F302FA04F598
:100FE0000AFA04F4C0F804B06FEA0303D0F808B0BA
:100FF0000BEA030B4BEA0C0BC0F808B0D0F80CB0AE
:1010000003EA0B0B4BEA0E0BC0F80CB012D0D0F871
:1010100000B0072E03EA0B0343EA07030360B8D9C5
:10102000436A490823EA040445EA04054562B7D146
:10103000BDE8F08F072E0AD8D0F820B02BEA0404C0
:1010400025430562046823403B430360A6E7D0F8CC
:1010500024B02BEA040425434562F3E700000000B6
:10106000202383F31188114B5B6813F4006302D1D2
:1010700083F31188704780B400AFEFF309834FF01A
:101080008071A3F1200243F8041C82F30988084A06
:10109000116892698968926891428CBF054A064A34
:1010A00043F8082CBD4680BC704700BF00ED00E04F
:1010B00020090020F5022000F802200000000000B6
:1010C00008B50348FFF78CFEBDE80840FFF7C8BF2E
:1010D0006008002000000000000000000000000088
:1010E00038B5174DAB691C69DA681440E2B2D243D7
:1010F0001A61A30704D56B681B690BB12846984792
:10110000600704D56B689B690BB10D4898472107B0
:1011100004D56B681B6A0BB109489847E20604D5F1
:101120006B689B6A0BB106489847E30704D56B6868
:101130009B680BB102489847BDE83840FFF790BF65
:101140004408002000000000000000000000000033
:1011500008B50B4B00211878DA680428116107D113
:101160000220187011601161D16821F0FF01D16077
:101170005B6803485B689847BDE80840FFF770BFAD
:101180003408002000000000000000000000000003
:10119000F8B5202787F31188124DEA8C2E460132CC
:1011A00056F81C3F92B2B342EA8413D01C89013C2A
:1011B000A4B21C8174B91A68D968DC605660EA610F
:1011C00084F311881869884787F31188EB691A89B5
:1011D000002AF0D0002383F31188BDE8F840FFF720
:1011E0003FBF00BF200900200000000000000000F9
:1011F000084B09485968826F890D01F03D0110B50F
:101200008C05DC600AB1C06F9047BDE81040FFF765
:1012100027BF00BF00640240900A002000000000C9
:10122000084B09485968026F090C01F03D0110B5DF
:101230000C04DC600AB1406F9047BDE81040FFF736
:101240000FBF00BF00640240900A002000000000B1
:10125000084B09485968826E890901F03D0110B5B3
:101260008C01DC600AB1C06E9047BDE81040FFF70A
:10127000F7BE00BF00640240900A0020000000009A
:1012800008B5074B07485968026E01F03D01D96067
:101290000AB1406E9047BDE80840FFF7E1BE00BFCD
:1012A00000640240900A00200000000000000000DE
:1012B000084B09481968826D890D01F03D0110B590
:1012C0008C059C600AB1C06D9047BDE81040FFF7E7
:1012D000C7BE00BF00640240900A0020000000006A
:1012E000084B09481968026D090C01F03D0110B561
:1012F0000C049C600AB1406D9047BDE81040FFF7B8
:10130000AFBE00BF00640240900A00200000000051
:10131000084B09481968826C890901F03D0110B534
:101320008C019C600AB1C06C9047BDE81040FFF78B
:1013300097BE00BF00640240900A00200000000039
:1013400008B5074B07481968026C01F03D01996028
:101350000AB1406C9047BDE80840FFF781BE00BF6E
:1013600000640240900A002000000000000000001D
:10137000084B09485968826B890D01F03D0110B591
:101380008C05DC600AB1C06B9047BDE81040FFF7E8
:1013900067BE00BF00600240900A0020000000000D
:1013A000084B09485968026B090C01F03D0110B562
:1013B0000C04DC600AB1406B9047BDE81040FFF7B9
:1013C0004FBE00BF00600240900A002000000000F5
:1013D000084B09485968826A890901F03D0110B536
:1013E0008C01DC600AB1C06A9047BDE81040FFF78D
:1013F00037BE00BF00600240900A002000000000DD
:1014000008B5074B07485968026A01F03D01D960E9
:101410000AB1406A9047BDE80840FFF721BE00BF0F
:1014200000600240900A0020000000000000000060
:10143000084B094819688269890D01F03D0110B512
:101440008C059C600AB1C0699047BDE81040FFF769
:1014500007BE00BF00600240900A002000000000AC
:10146000084B094819680269090C01F03D0110B5E3
:101470000C049C600AB140699047BDE81040FFF73A
:10148000EFBD00BF00600240900A00200000000095
:10149000084B094819688268890901F03D0110B5B7
:1014A0008C019C600AB1C0689047BDE81040FFF70E
:1014B000D7BD00BF00600240900A0020000000007D
:1014C00008B5074B074A196801F03D019960136898
:1014D0000BB150689847BDE80840FFF7C1BD00BF99
:1014E00000600240900A00200000000000000000A0
:1014F000F8B5234B00211A681960930635D5214CA5
:10150000E06A02685368002B2FD0216969B3136821
:1015100023F01F031360136813F00103FBD1077A54
:101520003D228D680121466802FA07F7A26A3760FA
:10153000536093609160FDB1052312482370A84762
:101540002378052B15D000232361202383F31188F2
:1015500063693BB14FF0FF31002218465962626166
:10156000FFF73EFB002383F31188BDE8F840FFF747
:1015700077BD02232370E6E7022325612370E4E7A9
:1015800000200140000800200000000000000000D2
:101590000E4B82685B680E499B1A426830B40C6F30
:1015A000C1681B1B01318360C160D0E90445E418A8
:1015B00045F100059342026888BF43609342C0E949
:1015C000044538BF036030BC704700BF001000E026
:1015D00020090020000000000000000000000000C2
:1015E00038B52022034682F31188104A946904F129
:1015F0002805A06A6362854206D00368A362FFF7EC
:10160000EFFAA06AA842F8D194F8223043B994F8CE
:1016100021309B0704D1226963691A6122695361F1
:101620000F20BDE83840FFF7C3BB00BF20090020F2
:101630000E4A0121106830B40368002594691360D4
:101640005A6080F8201084F82050A168906100E072
:101650001B689A689142FBD35A68214623606260F6
:1016600014605C6030BCFEF735BE00BF200900206E
:101670004FF6FF739942F0B587B031D01C4C074646
:101680001C48E369A5691A8905959142049005D91A
:10169000891A1B6889B21A898A42F9D35D6801AA3E
:1016A00001934FF6FF76029538462A605A60ADF8EE
:1016B0000C101A89511A1981A684FFF779FB049B33
:1016C00053B1019BBDF80C001A89029902441A819A
:1016D0000B60019B5960A684A369586A07B0F0BDEE
:1016E000034CFFF765FBA369586A07B0F0BD00BF64
:1016F00020090020710B2000000000000000000005
:1017000061B10246074B04209B6910B4546883E81A
:1017100014002360536010BCFFF7AABF4FF0FF30E6
:10172000704700BF200900200000000000000000FA
:101730002DE9F04F994683B004460E461546D0F881
:101740001C80202383F31188264B09F1FF3A0027E0
:10175000DB8C1FFA8AFA19FA83F39BB20193A36810
:1017600013B3616906F1010BA368481C013B60617A
:10177000A36033780B7061692369994201D3E368F0
:101780006361B8F1000F01D02046C047002383F306
:101790001188013D07F1010719D0202383F3118837
:1017A000A3685E46002BDCD14FF6FD72924512D83D
:1017B0000C4AD18C019A511A89B2894505D3204629
:1017C000FFF79EFF0028CAD0002383F31188384614
:1017D00003B0BDE8F08F49462046FFF791FF00288F
:1017E000BDD0F1E72009002000000000000000004B
:1017F0003030FFF79DBF00BF000000000000000078
:1018000030304FF6FF73FFF793BF00BF00000000BA
:10181000F8B504460F461646202383F3118803E0EB
:10182000FFF76EFF002819DBA56831462046002D22
:10183000F6D06269A368511C013B6161A360177017
:10184000626923699A4201D3E3686361E3690BB17A
:1018500020469847002080F31188F8BD85F3118851
:10186000F8BD00BF00000000000000000000000004
:101870003030FFF7CDBF00BF0000000000000000C7
:1018800030304FF6FF72FFF7C3BF00BF000000000B
:101890002DE9F04F994683B004460E461546D0F820
:1018A0001C80202383F31188264B09F1FF3A00277F
:1018B000DB8C1FFA8AFA19FA83F39BB20193A368AF
:1018C00013B3A16906F1010BA368481C013BA06199
:1018D000A3600B783370A1692369994201D3E3684F
:1018E000A361B8F1000F01D02046C047002383F365
:1018F0001188013D07F1010719D0202383F31188D6
:10190000A3685E46002BDCD14FF6FD72924512D8DB
:101910000C4AD18C019A511A89B2894505D32046C7
:10192000FFF7EEFE0028CAD0002383F31188384663
:1019300003B0BDE8F08F49462046FFF7E1FE0028DE
:10194000BDD0F1E7200900200000000000000000E9
:101950000C30FFF79DBF00BF00000000000000003A
:101960000C304FF6FF73FFF793BF00BF000000007D
:1019700070B5202304460E4683F3118803E0FFF779
:10198000BFFE002819DBA56831462046002DF6D0A1
:10199000A169A3684A1C2069013B8242A261A3603D
:1019A0000D7801D3E368A361E3690BB12046984742
:1019B000002383F31188284670BD85F3118870BD1C
:1019C0000C30FFF7D5BF00BF000000000000000092
:1019D0000C304FF6FF71FFF7CBBF00BF00000000D7
:1019E000FEE700BF00000000000000000000000053
:1019F000F0B5124F0026124D07F1800E114C124B1C
:101A000012499C4211D904391A4651F8040F42F880
:101A1000040B9442F9D8DA43144424F00304043448
:101A200023449D4203D943F8046B9D42FBD81037F1
:101A3000774502D297E83A00E3E7F0BDFC260008BC
:101A4000440002204400022044000220F82800083C
:101A5000FEE700BF000000000000000000000000E2
:101A6000704700BF00000000000000000000000000
:101A7000F0B5BFF34F8FBFF36F8F1B4C0022C4F83C
:101A80005022636943F400336361BFF34F8FBFF3A8
:101A90006F8FC4F88420BFF34F8FD4F8803043F6A3
:101AA000E07EC3F3C906C3F34E33B7075D0105EA11
:101AB0000E003946324641EA0003013A01F1404145
:101AC000C4F86032531CF6D1203D15F1200FEED141
:101AD000BFF34F8F636943F480336361BFF34F8F6C
:101AE000BFF36F8FF0BD00BF00ED00E0000000000D
:101AF000704700BF00000000000000000000000070
:101B0000704700BF0000000000000000000000005F
:101B100008B50348FFF764F9BDE80840FFF7A0BA2D
:101B2000C0080020000000000000000000000000CD
:101B3000DFF870A200244FF6FF714FF0FF320AF178
:101B40001C030026AAF824100AF12C05CAF81C3040
:101B5000CAF82030CAF800A0CAF804A0CAF810A039
:101B6000CAF814A0CAF80840AAF82640CAF870407B
:101B70002DE9804889B0002702A8029203940494BA
:101B80000594CDE9066700F0B3FD02A8FFF700FD5C
:101B9000704B71494FF6FF0C704A8027196003F1B2
:101BA000100E6F496F4E116001226F498AF84D4047
:101BB0000E606E490498CE68CAF8700006EA0C06FA
:101BC0006B48DFF8E4C13043DAF81460CAF83470C7
:101BD000CAF86870674FCAF860409C61C3F810E0AB
:101BE000C3F814E00AF1540ECAF840608AF84E2097
:101BF000CAF86440CAF83CA0CAF844C035610AF18A
:101C00005806C860F8689C6040F08070DC60CAF8D4
:101C10001450CAF818502025CAF854E04FF0100E9E
:101C2000554BCAF848408AF84C20F8605348CAF827
:101C30005860CAF85C60C3F8B00F186810431860A9
:101C400081F81FE081F8225084F3118862B685F391
:101C500011884B4B0225DAF81410C3F8982003F1D1
:101C60006C06C3F8CC2003F1900083F8B220454AFB
:101C7000454FC3F88C20454A83F8B05003F1BC05AA
:101C8000C3F8A41083F8B140C3F8C440C3F89C6003
:101C900003F1B806C3F8A8201C67C3F8C840C3F80E
:101CA000A0A0C3F8AC30DF660861DAF81820C3F8EA
:101CB000B4409168CAF81400C3F8B860C3F8BC50C7
:101CC000C3F8C050002900F0B883524683F8B040F2
:101CD000126891680029FBD1C3F890205468C3F8BA
:101CE00094402060506081F31188294B4FF0FF32FF
:101CF000284C18691A61196158695A615961186A42
:101D000060F0805018621962586A5A6259622268FB
:101D100042F4807222601A6F02F44072B2F5807F42
:101D200003D04FF480321A671967194B1A6F18469F
:101D300042F019021A67036F9B07FCD5154D00246A
:101D400015486A682346154E22F400726A60144AE8
:101D500014602DE0700A0020210B2000180B0020D9
:101D60004800022000000820140B002000ED00E0D5
:101D70000003FA05F0ED00E0001000E055CEACC520
:101D800098090020E5022000A10D20008C28000801
:101D900000380240007000408827000810600240B0
:101DA000100B0020200900206428000850F80C6C5B
:101DB000CF4A0C30336042F8313001311029F5D16F
:101DC0004FF0FF34CB4FCC4A40F2FF75BC604FF66A
:101DD000FF70FC604BF67E799460D460A2F53052BF
:101DE000C64E126BC64F2A43DFF88483DFF884C3E4
:101DF0003263326DDFF880B31543C24ADFF87CE30B
:101E000035654FF00866C04D53609460D560BF4D96
:101E1000506115624FF055355762BD4F17606FF036
:101E20007047C2F80434C2F8084404F18A4404F14B
:101E3000551404F5A854C2F80C444FF43004C2F809
:101E40001494C2F82034C2F82444B24CDFF8309322
:101E5000C2F80044B04CB14A6360A760B04FE7607D
:101E6000B04F6061276240F60827636227606FF415
:101E70004017C4F80434C4F80874AB4FC4F80C74A9
:101E80007727C4F81404C4F82034C4F824744FF439
:101E90002027C4F800740127C4F80438C4F808984F
:101EA000C4F80C58DFF8DC92C4F81408C4F82038E1
:101EB000C4F82438C4F800389C4CC9F80430C9F878
:101EC00008409B4CC9F80C50C9F81400C9F82030E0
:101ED000C9F82430C9F80030DFF8AC926360C4F868
:101EE0000890DFF8A892C4F80C90DFF8A492606123
:101EF0002362C4F8249026600F26DFF89892C4F875
:101F00000434C4F8086408F11806C4F80C94D946DF
:101F1000C4F81404C4F82034C4F82434C4F80034D9
:101F200004F500646360A360E560C8F80430606194
:101F3000C8F808302362C8F80C306362C8F8103063
:101F40002360C8F81430C4F80434C8F82030C4F84A
:101F50000834C8F81860C4F80C54C8F81C604FF076
:101F60000406C4F81404C4F82034C4F82434C4F8B3
:101F70000034C4F80438C4F80838C4F80C58C4F85D
:101F800014086C48C4F82038C4F82438C4F8003861
:101F90004FF06004C8F82800674888F80070C8F857
:101FA0002C006648664DC8F83000664880F8124339
:101FB0004FF48024C0F8804104600CF11004CBF889
:101FC0004C50CBF81C400EF110045F4DCBF8404054
:101FD0005E4C49F8045BCBF854405D4D5D4CCBF84A
:101FE00018C0CBF824C0CBF820C00BF10C0CCBF8F8
:101FF0000490E560DFF8A091574DCBF83CE0CBF8BA
:1020000048E0CBF844E00BF1300ECBF80CC02E7456
:102010004FF48026CBF810C0C5F818904FF0C009D7
:10202000DFF878C18BF80870CBF814302770CBF844
:1020300038102F70CBF830E0CBF834E09646CBF870
:1020400058C0CBF82830CBF82CB0CBF850B0636038
:102050006B60EB6080F85293C0F88861177202F1F0
:102060000C078660384ECEF82C20CEF850204EF863
:10207000046B3A4E5361C2F858C002F1300C9163C0
:102080004FF40021936280F853934FF080099661DA
:10209000566216621036C2F804E0D661304EDFF8A0
:1020A00000E1D66396645664103616640726C0F8BD
:1020B0008811C2F84CE0DFF8ECE08160C2F854E02F
:1020C0002849DFF8E4E0D760C1F804E01761264F43
:1020D0008B60C2F830C00E60C2F834C0202287F88E
:1020E000239082F3118822782049012A5EE000BF04
:1020F000900A002000600240006402400038024064
:102100000AAA0A000000024051550040B00B00B07E
:102110002880AE2A0140001800080240C0080020B4
:1021200051505501B000BB0055555055FFCF3F00F1
:1021300000180240002001400C280008162C020064
:10214000F10A200000E100E0942800080078004037
:10215000000800403408002044080020300B002014
:10216000500B002010E000E000ED00E07C280008AB
:1021700000080020200B002060080020400B0020F9
:10218000F3FFFFCF0014024000F0CC3C5555155131
:1021900000B0B000505555550004004080F9370399
:1021A000E10A2000007C0040BF4B0300616000F0AA
:1021B0008981A368B4495A09A1FB0232F240013A6D
:1021C00092B2E36800212020022619605860267030
:1021D0009A621961D96081F3118880F3118898F8A7
:1021E0000030C8F80410012B00F08E810223002675
:1021F00088F8003086F3118803220821A348FEF7EF
:10220000B7FE4FF0200E8EF311880320D8F830303F
:10221000D8F82C2001219E4F43F4807388F80000E9
:102220004FF0060C12684FF44069C8F81070994FCF
:10223000C8F80C10C8F80870D760516013601768B0
:10224000D8F828300F43DFF878821760924A1E6072
:10225000C3F80CC0C3F81090DE621E635863C3F865
:1022600004809A6086F311888EF31188636864276E
:10227000E2685B682070D76251615662166113B1E3
:10228000D3680B43D36085210023116083F3118849
:10229000202383F311889BF80830012B00F02E8156
:1022A000DBF8583040267D490124DBF8542040F209
:1022B0002D17A1FB031302204FF0FF311B0CD3603D
:1022C000566000269460176011628BF808008BF846
:1022D0005C1086F3118840F202424FF4807170481E
:1022E000FEF746FE40F2024280216D48FEF740FEB6
:1022F00021464FF481726B48FEF73AFE202383F3A8
:102300001188694C2B786068012B6C60A86000F024
:102310009780AB691E602A7C5E63042A9E63DE633D
:102320001E6401D99E65DE6500216A6959622168D3
:10233000461EE068B2FBF1F100F00F020139E06BDC
:10234000012A9962DE62586003D0022A0CBF032280
:102350000022616901F00F01012903D0022903D194
:1023600042F0200242F01002E16901F00F01012960
:1023700003D0022903D142F4007242F48072616AF0
:1023800001F00F01012903D0022903D142F40052C8
:1023900042F48052206C00211A620126852420F02C
:1023A000FF0002225E611961D8601C60E9602A703A
:1023B00081F31188202383F31188BAF82640A4B250
:1023C00081F311882EA7D7E900678946DFF8C4B0EA
:1023D000CDE900672F4B20271888FEF7E1F8DDE9EB
:1023E0000023FEF743F9FEF753FB87F31188EB68F0
:1023F000AA6943F00403D063EB6089F3118804F108
:102400000A084FF6FF735946022228481FFA88F837
:10241000FFF78EF987F31188BAF8261089B20C1BE2
:10242000A4B2092C05D8A8EB0101082089B2FFF756
:102430001FF989F311884446CCE782F82010FEE7A3
:102440001B4B4FF0005E4FF0700C46F668071A6C9D
:1024500042F002021A64196A164A41F00201196236
:102460001E62154982F81DC3AB69C2F880E1C2F84B
:1024700000E0124A9F616A61DF61596557E700BF5A
:1024800085EB51B81E850340C55A7C0A0000024006
:102490003C2800081C0B00200103001CC5B3A291BE
:1024A00000100240000402400000022090080020BA
:1024B0000038024000E100E06868010100F36F06A7
:1024C00000010004434A4FF0804742494FF0700E2C
:1024D000126C404E42F00402DFF814C10A6440F26C
:1024E0003742096A41F004013162C4F808C033621E
:1024F00080F81EE3C0F88071076062E6354A136C0D
:1025000043F080431364CBE6334AD8F82C101068AC
:102510004A7A9340034245D103432F4F2F48304E10
:1025200013F0FF0F00EBC2003B602C4FC0F804809B
:1025300047F8326004D02748026B42F4001202636D
:1025400013F47F4F04D0234A136B43F480031363C7
:102550000A68136823F01F031360166816F001065B
:10256000FBD1087A4FF03D0E4B684FF0210C0EFA6C
:1025700000FE1C4F0120C3F800E04FF0600E166013
:10258000C2F814C08B7A5E0903F01F013B4400FAC5
:1025900001F107EB860083F800E3C0F8801147F8EB
:1025A000261000E00A68104B00210A4F01269360B4
:1025B0007B6C0E4843F48073D8F828207B64436812
:1025C00003F4400343F480334360516091609660AC
:1025D0000CE600BF00380240100B0020900A0020DB
:1025E000110C200000E100E04C20014000230140DC
:1025F00000F36F0600000000000000000000000073
:1026000030B4334B4FF44040324A334C19461C64CB
:1026100010601A6842F001021A600B689B07FCD533
:102620008B682B4A23F003038B608B688B60936865
:1026300013F00C03FBD11068254900F0F90010607D
:102640009360136843F4A02313600B689D03FCD5CB
:10265000224B20484B600B6843F080730B6043684B
:102660005C04FCD503681B4A43F480330360536861
:10267000D903FCD51368174943F4003313604B6842
:102680009A03FCD5124A13689B01FCD5144B40F207
:102690000931144D40F2022400209560C2F88C40AC
:1026A000C2F8900019609368094943F002039360EF
:1026B0008B6803F00C03082BFAD14B6C43F4804376
:1026C0004B644B6E43F4804330BC4B66704700BF95
:1026D000003802400070004000040010086C4009FF
:1026E000003C02400094993000000000000000000F
:0C26F000014B5B6883607047001000E045
:1026FC00F828000844000220440002204400022074
:10270C00F82800080000022000000220000002202F
:10271C00F828000800C0072000C0072000C00720D0
:10272C00F8280008600B0020600B0020600B0020D4
:10273C00F828000800000000000000000000000065
:10274C00F8280008004002400040024000400240CF
:10275C00F828000800000000000000000000000045
:10276C00F828000800000000000000000000000035
:10277C00106002400860024000000B00286002401C
:10278C000860024006010C004060024008600240F4
:10279C0010020D00586002400860024016030E0043
:1027AC00706002400C60024000040F008860024020
:1027BC000C60024006051000A06002400C60024054
:1027CC0010061100B86002400C60024016072F0082
:1027DC00106402400864024000083800286402407B
:1027EC000864024006093900406402400864024053
:1027FC00100A3A005864024008640240160B3B0071
:10280C00706402400C640240000C3C00886402407E
:10281C000C640240060D4400A06402400C640240AB
:10282C00100E4500B86402400C640240160F4600BE
:10283C0001000100011B2000F11A20000000000023
:10284C000000001C06000000000C0000000000004E
:10285C0000000000030000006D61696E001600208E
:10286C00040244080C1014181C2021220000000043
:10287C00A086010000000000200000000000000005
:10288C0069646C65000000000118200061192000CB
:10289C0081182000D119200071182000C1192000C6
:0828AC00F11720005119200072
:1028B40020A1070010270000000000000000000015
:1028C4000000000000000000000000000100000003
:1028D40000000000000000000000000000000000F4
:1028E40000000000000000000000000000000000E4
:0428F40000000000E0
:0400000500200201D4
:00000001FF
